{
  "contractName": "ZooBaNFT",
  "abi": [
    {
      "inputs": [],
      "stateMutability": "nonpayable",
      "type": "constructor"
    },
    {
      "anonymous": false,
      "inputs": [
        {
          "indexed": true,
          "internalType": "address",
          "name": "owner",
          "type": "address"
        },
        {
          "indexed": true,
          "internalType": "address",
          "name": "approved",
          "type": "address"
        },
        {
          "indexed": true,
          "internalType": "uint256",
          "name": "tokenId",
          "type": "uint256"
        }
      ],
      "name": "Approval",
      "type": "event"
    },
    {
      "anonymous": false,
      "inputs": [
        {
          "indexed": true,
          "internalType": "address",
          "name": "owner",
          "type": "address"
        },
        {
          "indexed": true,
          "internalType": "address",
          "name": "operator",
          "type": "address"
        },
        {
          "indexed": false,
          "internalType": "bool",
          "name": "approved",
          "type": "bool"
        }
      ],
      "name": "ApprovalForAll",
      "type": "event"
    },
    {
      "anonymous": false,
      "inputs": [
        {
          "indexed": true,
          "internalType": "address",
          "name": "from",
          "type": "address"
        },
        {
          "indexed": true,
          "internalType": "address",
          "name": "to",
          "type": "address"
        },
        {
          "indexed": true,
          "internalType": "uint256",
          "name": "tokenId",
          "type": "uint256"
        }
      ],
      "name": "Transfer",
      "type": "event"
    },
    {
      "inputs": [
        {
          "internalType": "address",
          "name": "to",
          "type": "address"
        },
        {
          "internalType": "uint256",
          "name": "tokenId",
          "type": "uint256"
        }
      ],
      "name": "approve",
      "outputs": [],
      "stateMutability": "nonpayable",
      "type": "function"
    },
    {
      "inputs": [
        {
          "internalType": "address",
          "name": "owner",
          "type": "address"
        }
      ],
      "name": "balanceOf",
      "outputs": [
        {
          "internalType": "uint256",
          "name": "",
          "type": "uint256"
        }
      ],
      "stateMutability": "view",
      "type": "function",
      "constant": true
    },
    {
      "inputs": [
        {
          "internalType": "uint256",
          "name": "tokenId",
          "type": "uint256"
        }
      ],
      "name": "getApproved",
      "outputs": [
        {
          "internalType": "address",
          "name": "",
          "type": "address"
        }
      ],
      "stateMutability": "view",
      "type": "function",
      "constant": true
    },
    {
      "inputs": [
        {
          "internalType": "address",
          "name": "owner",
          "type": "address"
        },
        {
          "internalType": "address",
          "name": "operator",
          "type": "address"
        }
      ],
      "name": "isApprovedForAll",
      "outputs": [
        {
          "internalType": "bool",
          "name": "",
          "type": "bool"
        }
      ],
      "stateMutability": "view",
      "type": "function",
      "constant": true
    },
    {
      "inputs": [],
      "name": "name",
      "outputs": [
        {
          "internalType": "string",
          "name": "",
          "type": "string"
        }
      ],
      "stateMutability": "view",
      "type": "function",
      "constant": true
    },
    {
      "inputs": [
        {
          "internalType": "uint256",
          "name": "tokenId",
          "type": "uint256"
        }
      ],
      "name": "ownerOf",
      "outputs": [
        {
          "internalType": "address",
          "name": "",
          "type": "address"
        }
      ],
      "stateMutability": "view",
      "type": "function",
      "constant": true
    },
    {
      "inputs": [
        {
          "internalType": "address",
          "name": "from",
          "type": "address"
        },
        {
          "internalType": "address",
          "name": "to",
          "type": "address"
        },
        {
          "internalType": "uint256",
          "name": "tokenId",
          "type": "uint256"
        }
      ],
      "name": "safeTransferFrom",
      "outputs": [],
      "stateMutability": "nonpayable",
      "type": "function"
    },
    {
      "inputs": [
        {
          "internalType": "address",
          "name": "from",
          "type": "address"
        },
        {
          "internalType": "address",
          "name": "to",
          "type": "address"
        },
        {
          "internalType": "uint256",
          "name": "tokenId",
          "type": "uint256"
        },
        {
          "internalType": "bytes",
          "name": "_data",
          "type": "bytes"
        }
      ],
      "name": "safeTransferFrom",
      "outputs": [],
      "stateMutability": "nonpayable",
      "type": "function"
    },
    {
      "inputs": [
        {
          "internalType": "address",
          "name": "operator",
          "type": "address"
        },
        {
          "internalType": "bool",
          "name": "approved",
          "type": "bool"
        }
      ],
      "name": "setApprovalForAll",
      "outputs": [],
      "stateMutability": "nonpayable",
      "type": "function"
    },
    {
      "inputs": [
        {
          "internalType": "bytes4",
          "name": "interfaceId",
          "type": "bytes4"
        }
      ],
      "name": "supportsInterface",
      "outputs": [
        {
          "internalType": "bool",
          "name": "",
          "type": "bool"
        }
      ],
      "stateMutability": "view",
      "type": "function",
      "constant": true
    },
    {
      "inputs": [],
      "name": "symbol",
      "outputs": [
        {
          "internalType": "string",
          "name": "",
          "type": "string"
        }
      ],
      "stateMutability": "view",
      "type": "function",
      "constant": true
    },
    {
      "inputs": [],
      "name": "totalSupply",
      "outputs": [
        {
          "internalType": "uint256",
          "name": "",
          "type": "uint256"
        }
      ],
      "stateMutability": "view",
      "type": "function",
      "constant": true
    },
    {
      "inputs": [
        {
          "internalType": "address",
          "name": "from",
          "type": "address"
        },
        {
          "internalType": "address",
          "name": "to",
          "type": "address"
        },
        {
          "internalType": "uint256",
          "name": "tokenId",
          "type": "uint256"
        }
      ],
      "name": "transferFrom",
      "outputs": [],
      "stateMutability": "nonpayable",
      "type": "function"
    },
    {
      "inputs": [],
      "name": "mint",
      "outputs": [],
      "stateMutability": "nonpayable",
      "type": "function"
    },
    {
      "inputs": [
        {
          "internalType": "uint256",
          "name": "tokenId",
          "type": "uint256"
        }
      ],
      "name": "tokenURI",
      "outputs": [
        {
          "internalType": "string",
          "name": "",
          "type": "string"
        }
      ],
      "stateMutability": "pure",
      "type": "function",
      "constant": true
    }
  ],
  "bytecode": "0x60806040523480156200001157600080fd5b506040518060400160405280600881526020017f5a6f6f42614e46540000000000000000000000000000000000000000000000008152506040518060400160405280600581526020017f5a4f4f4241000000000000000000000000000000000000000000000000000000815250816000908051906020019062000096929190620000b8565b508060019080519060200190620000af929190620000b8565b505050620001cd565b828054620000c69062000197565b90600052602060002090601f016020900481019282620000ea576000855562000136565b82601f106200010557805160ff191683800117855562000136565b8280016001018555821562000136579182015b828111156200013557825182559160200191906001019062000118565b5b50905062000145919062000149565b5090565b5b80821115620001645760008160009055506001016200014a565b5090565b7f4e487b7100000000000000000000000000000000000000000000000000000000600052602260045260246000fd5b60006002820490506001821680620001b057607f821691505b60208210811415620001c757620001c662000168565b5b50919050565b6126db80620001dd6000396000f3fe608060405234801561001057600080fd5b50600436106100f55760003560e01c806342842e0e11610097578063a22cb46511610066578063a22cb46514610272578063b88d4fde1461028e578063c87b56dd146102aa578063e985e9c5146102da576100f5565b806342842e0e146101d85780636352211e146101f457806370a082311461022457806395d89b4114610254576100f5565b8063095ea7b3116100d3578063095ea7b3146101785780631249c58b1461019457806318160ddd1461019e57806323b872dd146101bc576100f5565b806301ffc9a7146100fa57806306fdde031461012a578063081812fc14610148575b600080fd5b610114600480360381019061010f9190611603565b61030a565b604051610121919061164b565b60405180910390f35b6101326103ec565b60405161013f91906116ff565b60405180910390f35b610162600480360381019061015d9190611757565b61047e565b60405161016f91906117c5565b60405180910390f35b610192600480360381019061018d919061180c565b610503565b005b61019c61061b565b005b6101a6610643565b6040516101b3919061185b565b60405180910390f35b6101d660048036038101906101d19190611876565b610649565b005b6101f260048036038101906101ed9190611876565b6106a9565b005b61020e60048036038101906102099190611757565b6106c9565b60405161021b91906117c5565b60405180910390f35b61023e600480360381019061023991906118c9565b61077b565b60405161024b919061185b565b60405180910390f35b61025c610833565b60405161026991906116ff565b60405180910390f35b61028c60048036038101906102879190611922565b6108c5565b005b6102a860048036038101906102a39190611a97565b6108db565b005b6102c460048036038101906102bf9190611757565b61093d565b6040516102d191906116ff565b60405180910390f35b6102f460048036038101906102ef9190611b1a565b61096e565b604051610301919061164b565b60405180910390f35b60007f80ac58cd000000000000000000000000000000000000000000000000000000007bffffffffffffffffffffffffffffffffffffffffffffffffffffffff1916827bffffffffffffffffffffffffffffffffffffffffffffffffffffffff191614806103d557507f5b5e139f000000000000000000000000000000000000000000000000000000007bffffffffffffffffffffffffffffffffffffffffffffffffffffffff1916827bffffffffffffffffffffffffffffffffffffffffffffffffffffffff1916145b806103e557506103e482610a02565b5b9050919050565b6060600080546103fb90611b89565b80601f016020809104026020016040519081016040528092919081815260200182805461042790611b89565b80156104745780601f1061044957610100808354040283529160200191610474565b820191906000526020600020905b81548152906001019060200180831161045757829003601f168201915b5050505050905090565b600061048982610a6c565b6104c8576040517f08c379a00000000000000000000000000000000000000000000000000000000081526004016104bf90611c2d565b60405180910390fd5b6004600083815260200190815260200160002060009054906101000a900473ffffffffffffffffffffffffffffffffffffffff169050919050565b600061050e826106c9565b90508073ffffffffffffffffffffffffffffffffffffffff168373ffffffffffffffffffffffffffffffffffffffff16141561057f576040517f08c379a000000000000000000000000000000000000000000000000000000000815260040161057690611cbf565b60405180910390fd5b8073ffffffffffffffffffffffffffffffffffffffff1661059e610ad8565b73ffffffffffffffffffffffffffffffffffffffff1614806105cd57506105cc816105c7610ad8565b61096e565b5b61060c576040517f08c379a000000000000000000000000000000000000000000000000000000000815260040161060390611d51565b60405180910390fd5b6106168383610ae0565b505050565b61062733600654610b99565b60016006600082825461063a9190611da0565b92505081905550565b60065481565b61065a610654610ad8565b82610d73565b610699576040517f08c379a000000000000000000000000000000000000000000000000000000000815260040161069090611e68565b60405180910390fd5b6106a4838383610e51565b505050565b6106c4838383604051806020016040528060008152506108db565b505050565b6000806002600084815260200190815260200160002060009054906101000a900473ffffffffffffffffffffffffffffffffffffffff169050600073ffffffffffffffffffffffffffffffffffffffff168173ffffffffffffffffffffffffffffffffffffffff161415610772576040517f08c379a000000000000000000000000000000000000000000000000000000000815260040161076990611efa565b60405180910390fd5b80915050919050565b60008073ffffffffffffffffffffffffffffffffffffffff168273ffffffffffffffffffffffffffffffffffffffff1614156107ec576040517f08c379a00000000000000000000000000000000000000000000000000000000081526004016107e390611f8c565b60405180910390fd5b600360008373ffffffffffffffffffffffffffffffffffffffff1673ffffffffffffffffffffffffffffffffffffffff168152602001908152602001600020549050919050565b60606001805461084290611b89565b80601f016020809104026020016040519081016040528092919081815260200182805461086e90611b89565b80156108bb5780601f10610890576101008083540402835291602001916108bb565b820191906000526020600020905b81548152906001019060200180831161089e57829003601f168201915b5050505050905090565b6108d76108d0610ad8565b83836110b8565b5050565b6108ec6108e6610ad8565b83610d73565b61092b576040517f08c379a000000000000000000000000000000000000000000000000000000000815260040161092290611e68565b60405180910390fd5b61093784848484611225565b50505050565b606061094882611281565b60405160200161095891906120cc565b6040516020818303038152906040529050919050565b6000600560008473ffffffffffffffffffffffffffffffffffffffff1673ffffffffffffffffffffffffffffffffffffffff16815260200190815260200160002060008373ffffffffffffffffffffffffffffffffffffffff1673ffffffffffffffffffffffffffffffffffffffff16815260200190815260200160002060009054906101000a900460ff16905092915050565b60007f01ffc9a7000000000000000000000000000000000000000000000000000000007bffffffffffffffffffffffffffffffffffffffffffffffffffffffff1916827bffffffffffffffffffffffffffffffffffffffffffffffffffffffff1916149050919050565b60008073ffffffffffffffffffffffffffffffffffffffff166002600084815260200190815260200160002060009054906101000a900473ffffffffffffffffffffffffffffffffffffffff1673ffffffffffffffffffffffffffffffffffffffff1614159050919050565b600033905090565b816004600083815260200190815260200160002060006101000a81548173ffffffffffffffffffffffffffffffffffffffff021916908373ffffffffffffffffffffffffffffffffffffffff160217905550808273ffffffffffffffffffffffffffffffffffffffff16610b53836106c9565b73ffffffffffffffffffffffffffffffffffffffff167f8c5be1e5ebec7d5bd14f71427d1e84f3dd0314c0f7b2291e5b200ac8c7c3b92560405160405180910390a45050565b600073ffffffffffffffffffffffffffffffffffffffff168273ffffffffffffffffffffffffffffffffffffffff161415610c09576040517f08c379a0000000000000000000000000000000000000000000000000000000008152600401610c0090612145565b60405180910390fd5b610c1281610a6c565b15610c52576040517f08c379a0000000000000000000000000000000000000000000000000000000008152600401610c49906121b1565b60405180910390fd5b610c5e600083836113e2565b6001600360008473ffffffffffffffffffffffffffffffffffffffff1673ffffffffffffffffffffffffffffffffffffffff1681526020019081526020016000206000828254610cae9190611da0565b92505081905550816002600083815260200190815260200160002060006101000a81548173ffffffffffffffffffffffffffffffffffffffff021916908373ffffffffffffffffffffffffffffffffffffffff160217905550808273ffffffffffffffffffffffffffffffffffffffff16600073ffffffffffffffffffffffffffffffffffffffff167fddf252ad1be2c89b69c2b068fc378daa952ba7f163c4a11628f55a4df523b3ef60405160405180910390a4610d6f600083836113e7565b5050565b6000610d7e82610a6c565b610dbd576040517f08c379a0000000000000000000000000000000000000000000000000000000008152600401610db490612243565b60405180910390fd5b6000610dc8836106c9565b90508073ffffffffffffffffffffffffffffffffffffffff168473ffffffffffffffffffffffffffffffffffffffff161480610e3757508373ffffffffffffffffffffffffffffffffffffffff16610e1f8461047e565b73ffffffffffffffffffffffffffffffffffffffff16145b80610e485750610e47818561096e565b5b91505092915050565b8273ffffffffffffffffffffffffffffffffffffffff16610e71826106c9565b73ffffffffffffffffffffffffffffffffffffffff1614610ec7576040517f08c379a0000000000000000000000000000000000000000000000000000000008152600401610ebe906122d5565b60405180910390fd5b600073ffffffffffffffffffffffffffffffffffffffff168273ffffffffffffffffffffffffffffffffffffffff161415610f37576040517f08c379a0000000000000000000000000000000000000000000000000000000008152600401610f2e90612367565b60405180910390fd5b610f428383836113e2565b610f4d600082610ae0565b6001600360008573ffffffffffffffffffffffffffffffffffffffff1673ffffffffffffffffffffffffffffffffffffffff1681526020019081526020016000206000828254610f9d9190612387565b925050819055506001600360008473ffffffffffffffffffffffffffffffffffffffff1673ffffffffffffffffffffffffffffffffffffffff1681526020019081526020016000206000828254610ff49190611da0565b92505081905550816002600083815260200190815260200160002060006101000a81548173ffffffffffffffffffffffffffffffffffffffff021916908373ffffffffffffffffffffffffffffffffffffffff160217905550808273ffffffffffffffffffffffffffffffffffffffff168473ffffffffffffffffffffffffffffffffffffffff167fddf252ad1be2c89b69c2b068fc378daa952ba7f163c4a11628f55a4df523b3ef60405160405180910390a46110b38383836113e7565b505050565b8173ffffffffffffffffffffffffffffffffffffffff168373ffffffffffffffffffffffffffffffffffffffff161415611127576040517f08c379a000000000000000000000000000000000000000000000000000000000815260040161111e90612407565b60405180910390fd5b80600560008573ffffffffffffffffffffffffffffffffffffffff1673ffffffffffffffffffffffffffffffffffffffff16815260200190815260200160002060008473ffffffffffffffffffffffffffffffffffffffff1673ffffffffffffffffffffffffffffffffffffffff16815260200190815260200160002060006101000a81548160ff0219169083151502179055508173ffffffffffffffffffffffffffffffffffffffff168373ffffffffffffffffffffffffffffffffffffffff167f17307eab39ab6107e8899845ad3d59bd9653f200f220920489ca2b5937696c3183604051611218919061164b565b60405180910390a3505050565b611230848484610e51565b61123c848484846113ec565b61127b576040517f08c379a000000000000000000000000000000000000000000000000000000000815260040161127290612499565b60405180910390fd5b50505050565b606060008214156112c9576040518060400160405280600181526020017f300000000000000000000000000000000000000000000000000000000000000081525090506113dd565b600082905060005b600082146112fb5780806112e4906124b9565b915050600a826112f49190612531565b91506112d1565b60008167ffffffffffffffff8111156113175761131661196c565b5b6040519080825280601f01601f1916602001820160405280156113495781602001600182028036833780820191505090505b5090505b600085146113d6576001826113629190612387565b9150600a856113719190612562565b603061137d9190611da0565b60f81b81838151811061139357611392612593565b5b60200101907effffffffffffffffffffffffffffffffffffffffffffffffffffffffffffff1916908160001a905350600a856113cf9190612531565b945061134d565b8093505050505b919050565b505050565b505050565b600061140d8473ffffffffffffffffffffffffffffffffffffffff16611574565b15611567578373ffffffffffffffffffffffffffffffffffffffff1663150b7a02611436610ad8565b8786866040518563ffffffff1660e01b81526004016114589493929190612617565b6020604051808303816000875af192505050801561149457506040513d601f19601f820116820180604052508101906114919190612678565b60015b611517573d80600081146114c4576040519150601f19603f3d011682016040523d82523d6000602084013e6114c9565b606091505b5060008151141561150f576040517f08c379a000000000000000000000000000000000000000000000000000000000815260040161150690612499565b60405180910390fd5b805181602001fd5b63150b7a0260e01b7bffffffffffffffffffffffffffffffffffffffffffffffffffffffff1916817bffffffffffffffffffffffffffffffffffffffffffffffffffffffff19161491505061156c565b600190505b949350505050565b6000808273ffffffffffffffffffffffffffffffffffffffff163b119050919050565b6000604051905090565b600080fd5b600080fd5b60007fffffffff0000000000000000000000000000000000000000000000000000000082169050919050565b6115e0816115ab565b81146115eb57600080fd5b50565b6000813590506115fd816115d7565b92915050565b600060208284031215611619576116186115a1565b5b6000611627848285016115ee565b91505092915050565b60008115159050919050565b61164581611630565b82525050565b6000602082019050611660600083018461163c565b92915050565b600081519050919050565b600082825260208201905092915050565b60005b838110156116a0578082015181840152602081019050611685565b838111156116af576000848401525b50505050565b6000601f19601f8301169050919050565b60006116d182611666565b6116db8185611671565b93506116eb818560208601611682565b6116f4816116b5565b840191505092915050565b6000602082019050818103600083015261171981846116c6565b905092915050565b6000819050919050565b61173481611721565b811461173f57600080fd5b50565b6000813590506117518161172b565b92915050565b60006020828403121561176d5761176c6115a1565b5b600061177b84828501611742565b91505092915050565b600073ffffffffffffffffffffffffffffffffffffffff82169050919050565b60006117af82611784565b9050919050565b6117bf816117a4565b82525050565b60006020820190506117da60008301846117b6565b92915050565b6117e9816117a4565b81146117f457600080fd5b50565b600081359050611806816117e0565b92915050565b60008060408385031215611823576118226115a1565b5b6000611831858286016117f7565b925050602061184285828601611742565b9150509250929050565b61185581611721565b82525050565b6000602082019050611870600083018461184c565b92915050565b60008060006060848603121561188f5761188e6115a1565b5b600061189d868287016117f7565b93505060206118ae868287016117f7565b92505060406118bf86828701611742565b9150509250925092565b6000602082840312156118df576118de6115a1565b5b60006118ed848285016117f7565b91505092915050565b6118ff81611630565b811461190a57600080fd5b50565b60008135905061191c816118f6565b92915050565b60008060408385031215611939576119386115a1565b5b6000611947858286016117f7565b92505060206119588582860161190d565b9150509250929050565b600080fd5b600080fd5b7f4e487b7100000000000000000000000000000000000000000000000000000000600052604160045260246000fd5b6119a4826116b5565b810181811067ffffffffffffffff821117156119c3576119c261196c565b5b80604052505050565b60006119d6611597565b90506119e2828261199b565b919050565b600067ffffffffffffffff821115611a0257611a0161196c565b5b611a0b826116b5565b9050602081019050919050565b82818337600083830152505050565b6000611a3a611a35846119e7565b6119cc565b905082815260208101848484011115611a5657611a55611967565b5b611a61848285611a18565b509392505050565b600082601f830112611a7e57611a7d611962565b5b8135611a8e848260208601611a27565b91505092915050565b60008060008060808587031215611ab157611ab06115a1565b5b6000611abf878288016117f7565b9450506020611ad0878288016117f7565b9350506040611ae187828801611742565b925050606085013567ffffffffffffffff811115611b0257611b016115a6565b5b611b0e87828801611a69565b91505092959194509250565b60008060408385031215611b3157611b306115a1565b5b6000611b3f858286016117f7565b9250506020611b50858286016117f7565b9150509250929050565b7f4e487b7100000000000000000000000000000000000000000000000000000000600052602260045260246000fd5b60006002820490506001821680611ba157607f821691505b60208210811415611bb557611bb4611b5a565b5b50919050565b7f4552433732313a20617070726f76656420717565727920666f72206e6f6e657860008201527f697374656e7420746f6b656e0000000000000000000000000000000000000000602082015250565b6000611c17602c83611671565b9150611c2282611bbb565b604082019050919050565b60006020820190508181036000830152611c4681611c0a565b9050919050565b7f4552433732313a20617070726f76616c20746f2063757272656e74206f776e6560008201527f7200000000000000000000000000000000000000000000000000000000000000602082015250565b6000611ca9602183611671565b9150611cb482611c4d565b604082019050919050565b60006020820190508181036000830152611cd881611c9c565b9050919050565b7f4552433732313a20617070726f76652063616c6c6572206973206e6f74206f7760008201527f6e6572206e6f7220617070726f76656420666f7220616c6c0000000000000000602082015250565b6000611d3b603883611671565b9150611d4682611cdf565b604082019050919050565b60006020820190508181036000830152611d6a81611d2e565b9050919050565b7f4e487b7100000000000000000000000000000000000000000000000000000000600052601160045260246000fd5b6000611dab82611721565b9150611db683611721565b9250827fffffffffffffffffffffffffffffffffffffffffffffffffffffffffffffffff03821115611deb57611dea611d71565b5b828201905092915050565b7f4552433732313a207472616e736665722063616c6c6572206973206e6f74206f60008201527f776e6572206e6f7220617070726f766564000000000000000000000000000000602082015250565b6000611e52603183611671565b9150611e5d82611df6565b604082019050919050565b60006020820190508181036000830152611e8181611e45565b9050919050565b7f4552433732313a206f776e657220717565727920666f72206e6f6e657869737460008201527f656e7420746f6b656e0000000000000000000000000000000000000000000000602082015250565b6000611ee4602983611671565b9150611eef82611e88565b604082019050919050565b60006020820190508181036000830152611f1381611ed7565b9050919050565b7f4552433732313a2062616c616e636520717565727920666f7220746865207a6560008201527f726f206164647265737300000000000000000000000000000000000000000000602082015250565b6000611f76602a83611671565b9150611f8182611f1a565b604082019050919050565b60006020820190508181036000830152611fa581611f69565b9050919050565b600081905092915050565b7f68747470733a2f2f7261772e67697468756275736572636f6e74656e742e636f60008201527f6d2f737264656d69676f642f5a6f6f42614e4654332f6d61737465722f61737360208201527f6574732f5a6f6f42614e46545f00000000000000000000000000000000000000604082015250565b6000612039604d83611fac565b915061204482611fb7565b604d82019050919050565b600061205a82611666565b6120648185611fac565b9350612074818560208601611682565b80840191505092915050565b7f2e6a736f6e000000000000000000000000000000000000000000000000000000600082015250565b60006120b6600583611fac565b91506120c182612080565b600582019050919050565b60006120d78261202c565b91506120e3828461204f565b91506120ee826120a9565b915081905092915050565b7f4552433732313a206d696e7420746f20746865207a65726f2061646472657373600082015250565b600061212f602083611671565b915061213a826120f9565b602082019050919050565b6000602082019050818103600083015261215e81612122565b9050919050565b7f4552433732313a20746f6b656e20616c7265616479206d696e74656400000000600082015250565b600061219b601c83611671565b91506121a682612165565b602082019050919050565b600060208201905081810360008301526121ca8161218e565b9050919050565b7f4552433732313a206f70657261746f7220717565727920666f72206e6f6e657860008201527f697374656e7420746f6b656e0000000000000000000000000000000000000000602082015250565b600061222d602c83611671565b9150612238826121d1565b604082019050919050565b6000602082019050818103600083015261225c81612220565b9050919050565b7f4552433732313a207472616e736665722066726f6d20696e636f72726563742060008201527f6f776e6572000000000000000000000000000000000000000000000000000000602082015250565b60006122bf602583611671565b91506122ca82612263565b604082019050919050565b600060208201905081810360008301526122ee816122b2565b9050919050565b7f4552433732313a207472616e7366657220746f20746865207a65726f2061646460008201527f7265737300000000000000000000000000000000000000000000000000000000602082015250565b6000612351602483611671565b915061235c826122f5565b604082019050919050565b6000602082019050818103600083015261238081612344565b9050919050565b600061239282611721565b915061239d83611721565b9250828210156123b0576123af611d71565b5b828203905092915050565b7f4552433732313a20617070726f766520746f2063616c6c657200000000000000600082015250565b60006123f1601983611671565b91506123fc826123bb565b602082019050919050565b60006020820190508181036000830152612420816123e4565b9050919050565b7f4552433732313a207472616e7366657220746f206e6f6e20455243373231526560008201527f63656976657220696d706c656d656e7465720000000000000000000000000000602082015250565b6000612483603283611671565b915061248e82612427565b604082019050919050565b600060208201905081810360008301526124b281612476565b9050919050565b60006124c482611721565b91507fffffffffffffffffffffffffffffffffffffffffffffffffffffffffffffffff8214156124f7576124f6611d71565b5b600182019050919050565b7f4e487b7100000000000000000000000000000000000000000000000000000000600052601260045260246000fd5b600061253c82611721565b915061254783611721565b92508261255757612556612502565b5b828204905092915050565b600061256d82611721565b915061257883611721565b92508261258857612587612502565b5b828206905092915050565b7f4e487b7100000000000000000000000000000000000000000000000000000000600052603260045260246000fd5b600081519050919050565b600082825260208201905092915050565b60006125e9826125c2565b6125f381856125cd565b9350612603818560208601611682565b61260c816116b5565b840191505092915050565b600060808201905061262c60008301876117b6565b61263960208301866117b6565b612646604083018561184c565b818103606083015261265881846125de565b905095945050505050565b600081519050612672816115d7565b92915050565b60006020828403121561268e5761268d6115a1565b5b600061269c84828501612663565b9150509291505056fea2646970667358221220fc01e51ea774723b26c87fb01fd48e8d914a07fc9be1079e1da380bf9cfdc5c464736f6c634300080b0033",
  "immutableReferences": {},
  "source": "// SPDX-License-Identifier: MIT\r\n\r\npragma solidity 0.8.11;\r\n\r\nimport \"@openzeppelin/contracts/token/ERC721/ERC721.sol\";\r\nimport \"@openzeppelin/contracts/utils/Strings.sol\";\r\n\r\ncontract ZooBaNFT is ERC721 {\r\n    uint256 public totalSupply;\r\n    constructor() ERC721(\"ZooBaNFT\", \"ZOOBA\") {\r\n    }\r\n    function mint() public {\r\n        _mint(msg.sender, totalSupply);\r\n        totalSupply += 1;\r\n    }\r\n    function tokenURI(uint256 tokenId) public pure override returns (string memory) {\r\n        return string( abi.encodePacked(\"https://raw.githubusercontent.com/srdemigod/ZooBaNFT3/master/assets/ZooBaNFT_\", Strings.toString(tokenId) , \".json\"));\r\n\r\n    }\r\n}",
  "sourcePath": "E:\\ZooBaNFT\\contracts\\ZooBaNFT.sol",
  "compiler": {
    "name": "solc",
    "version": "0.8.11+commit.d7f03943.Emscripten.clang"
  },
  "schemaVersion": "3.4.4",
  "updatedAt": "2022-02-25T05:00:38.224Z",
  "networkType": "ethereum",
  "devdoc": {
    "kind": "dev",
    "methods": {
      "approve(address,uint256)": {
        "details": "See {IERC721-approve}."
      },
      "balanceOf(address)": {
        "details": "See {IERC721-balanceOf}."
      },
      "getApproved(uint256)": {
        "details": "See {IERC721-getApproved}."
      },
      "isApprovedForAll(address,address)": {
        "details": "See {IERC721-isApprovedForAll}."
      },
      "name()": {
        "details": "See {IERC721Metadata-name}."
      },
      "ownerOf(uint256)": {
        "details": "See {IERC721-ownerOf}."
      },
      "safeTransferFrom(address,address,uint256)": {
        "details": "See {IERC721-safeTransferFrom}."
      },
      "safeTransferFrom(address,address,uint256,bytes)": {
        "details": "See {IERC721-safeTransferFrom}."
      },
      "setApprovalForAll(address,bool)": {
        "details": "See {IERC721-setApprovalForAll}."
      },
      "supportsInterface(bytes4)": {
        "details": "See {IERC165-supportsInterface}."
      },
      "symbol()": {
        "details": "See {IERC721Metadata-symbol}."
      },
      "tokenURI(uint256)": {
        "details": "See {IERC721Metadata-tokenURI}."
      },
      "transferFrom(address,address,uint256)": {
        "details": "See {IERC721-transferFrom}."
      }
    },
    "version": 1
  },
  "userdoc": {
    "kind": "user",
    "methods": {},
    "version": 1
  }
}